:020000040800F2
:100000005013002069020008130E0008470B000877
:10001000110E000867040008FD1800080000000029
:100020000000000000000000000000007B0200084B
:100030001B0A0008000000007F020008810200087F
:10004000830200088302000883020008830200087C
:10005000830200088302000883020008830200086C
:10006000830200088302000883020008830200085C
:10007000830200088302000883020008830200084C
:10008000830200088302000883020008830200083C
:100090006904000883020008830200088302000844
:1000A000830200088302000883020008830200081C
:1000B0008302000883020008A116000883020008DA
:1000C00083020008830200088302000883020008FC
:1000D00083020008830200088302000883020008EC
:1000E00083020008830200088302000883020008DC
:1000F00083020008830200088302000883020008CC
:1001000083020008830200088302000883020008BB
:1001100083020008830200088302000883020008AB
:10012000830200088302000883020008830200089B
:10013000830200088302000883020008830200088B
:10014000F504000883020008830200088302000807
:10015000830200088302000883020008830200086B
:10016000830200088302000883020008830200085B
:10017000830200088302000883020008830200084B
:10018000830200088302000800F002F800F05CF827
:100190000AA090E8000C82448344AAF10107DA45E2
:1001A00001D100F051F8AFF2090EBAE80F0013F0D8
:1001B000010F18BFFB1A43F0010318476842000003
:1001C000884200000A444FF0000C10F8013B13F085
:1001D000070408BF10F8014B1D1108BF10F8015BA0
:1001E000641E05D010F8016B641E01F8016BF9D193
:1001F00013F0080F1EBF10F8014BAD1C0C1B09D1EA
:100200006D1E58BF01F801CBFAD505E014F8016B5B
:1002100001F8016B6D1EF9D59142D6D370470000ED
:100220000023002400250026103A28BF78C1FBD8FF
:10023000520728BF30C148BF0B6070471FB504F09C
:100240002CF81FBD10B510BD00F0D4F81146FFF713
:10025000F5FF02F0F3F800F0F2F803B4FFF7F2FF55
:1002600003BC00F0F9F8000009488047094800473E
:10027000FEE7FEE7FEE7FEE7FEE7FEE7FEE7FEE756
:10028000FEE7FEE704480549054A064B70470000B3
:100290004516000889010008500D00205013002069
:1002A000500F0020500F002040EA010310B59B07BB
:1002B0000FD1042A0DD310C808C9121F9C42F8D0D0
:1002C00020BA19BA884201D9012010BD4FF0FF3081
:1002D00010BD1AB1D30703D0521C07E0002010BD97
:1002E00010F8013B11F8014B1B1B07D110F8013B23
:1002F00011F8014B1B1B01D1921EF1D1184610BD04
:10030000032A40F2308010F0030C00F0158011F841
:10031000013BBCF1020F624498BF11F801CB00F819
:10032000013B38BF11F8013BA2F1040298BF00F86D
:1003300001CB38BF00F8013B11F0030300F0288027
:10034000083AC0F0088051F8043B083A51F804CB51
:10035000A0E80810F5E7121D5CBF51F8043B40F817
:10036000043BAFF30080D20724BF11F8013B11F822
:1003700001CB48BF11F8012B24BF00F8013B00F866
:1003800001CB48BF00F8012B70477047704770479A
:1003900010B5203AC0F00B80B1E81850203AA0E820
:1003A0001850B1E81850A0E81850BFF4F5AF5FEA54
:1003B000027C24BFB1E81850A0E8185044BF18C907
:1003C00018C0BDE810405FEA827C24BF51F8043BAE
:1003D00040F8043B08BF7047D20728BF31F8023B02
:1003E00048BF11F8012B28BF20F8023B48BF00F896
:1003F000012B7047754600F02BF8AE4605006946A4
:10040000534620F00700854618B020B5FFF73AFFA5
:10041000BDE820404FF000064FF000074FF0000805
:100420004FF0000B21F00701AC46ACE8C009ACE886
:10043000C009ACE8C009ACE8C0098D46704710B5EA
:100440000446AFF300802046BDE81040FFF705BF2B
:1004500000487047F00C002001491820ABBEFEE7B1
:10046000260002007047FEE710B588B00024009413
:10047000019403AA21461348029400F06FF90398EF
:10048000ADF800009DF815008DF802009DF81600EB
:100490008DF80300684603A904E00A190319D27A0B
:1004A0001A71641C9DF80320A242F6D806A1002010
:1004B00000F05EFF0E486946006801F0FDFC08B0E0
:1004C00010BD00000064004063616E206D617374B4
:1004D0006572207265766369766520646174612156
:1004E00021212121212121212121210A0000000097
:1004F0000C00002000B585B06A460021024800F0DB
:100500002DF905B000BD0000006800400D49C0F89D
:10051000AC100D4940F8801F0C4941600C498160C6
:100520000C49C1600C49C0F84C110C49C0F850117D
:100530000B49C0F8B8110B49C0F854110A49C0F86A
:1005400058117047890B0008B10B0008D90D00083D
:10055000BD0C0008F90D0008990D00087D0D00087C
:10056000810D0008250D0008590D0008094910B536
:1005700088424FF0010101D14C0601E04FF0806448
:10058000204600F01BFE2046BDE81040002100F090
:1005900015BE000000640040F0B5827A2F4D0121A5
:1005A00091402A6842F001022A602C4E1C363268C3
:1005B0008A433260294A047B294B0C32A4B914685F
:1005C0008C4314604488C78844EA0744877A03EB65
:1005D000C707C7F840460488878844EA0744877AF3
:1005E00003EBC707C7F84446047B012C12D11468FB
:1005F0000C431460847A026803EBC4044FEA32426D
:10060000C4F84026847A426803EBC4034FEA3242BE
:10061000C3F84426114AC37A121D002B136806D072
:100620000B4313600D4A0389143213B104E08B436A
:10063000F7E713688B4313600389012B02D113681A
:100640000B431360407B012802D1306808433060BF
:10065000286820F001002860F0BD0000006600401E
:1006600000600040002A426901D00A4300E08A434A
:100670004261704710B50368002223F00203036053
:10068000036843F0010303604FF6FF7300E0521C60
:100690004468E40701D19A42F9D14268D2073ED0BA
:1006A0008A79012A02683CD022F080020260CA796D
:1006B000012A026838D022F0400202600A7A012A38
:1006C000026834D022F0200202604A7A012A0268CD
:1006D00030D022F0100202608A7A012A02682CD0FF
:1006E00022F008020260CA7A012A026828D022F0A9
:1006F000040202608A78CC78920742EA04620C799C
:1007000042EA04424C79098842EA0452491E0A43EB
:10071000C261016821F001010160002114E00020A4
:1007200010BD42F08002C1E742F04002C5E742F04E
:100730002002C9E742F01002CDE742F00802D1E7FB
:1007400042F00402D5E7491C4268D20701D0994221
:10075000F9D14068C007E2D1012010BD10B500EB0F
:100760000113D3F8B04114F004041472D3F8B0416B
:1007700033D0E4085460D3F8B04104F0020454725A
:10078000D3F8B44104F00F049472D3F8B441240AAE
:10079000D474D3F8B841D472D3F8B841240A14738E
:1007A000D3F8B841240C5473D3F8B841240E947391
:1007B000D3F8BC41D473D3F8BC41240A1474D3F8E1
:1007C000BC41240C5474D3F8BC311B0E937439B162
:1007D000016941F02001016110BD640D1460CAE798
:1007E000C16841F02001C16010BD000009490A68DC
:1007F00042F001020A600A6843F60E739A430A60E7
:100800000A6842EA00200860086820F001000860D9
:10081000704700000066004000218171C1710172C3
:1008200041728172C1728170C17003210171022114
:10083000417101210180704730B502460020936864
:100840005B0108D49068000101D5012003E09068A5
:10085000C00037D5022002EB0012D2F8803103F03D
:100860000103C2F880310B7A73B3D2F880414D682E
:100870001C434B7A43EAC5031C43C2F880418B7A80
:1008800003F00F038B72D2F8843123F00F03C2F808
:100890008431D2F884318C7A2343C2F88431CB7A04
:1008A000CC6843EA0423C2F88831CB7B096943EA68
:1008B0000121C2F88C11D2F8801141F00101C2F877
:1008C000801130BD042030BDD2F880314C7A2343F2
:1008D0000C8843EA4453C2F88031D0E770B501F088
:1008E0007BFD164C144D2068C0F8E051FFF70EFE5A
:1008F0000021206803F0AAFB7F21206803F0FEFAA4
:100900000621284601F016FB00204FF48031401CE0
:100910008842FCD30020401C8842FCD30020401CAD
:100920008842FCD30020401C8842FCD30020401C9D
:100930008842FCD370BD0000006400400C00002021
:1009400030B40A46D0F89C10D0F8A0404FF0FF33E6
:1009500051F8221024F81230C1F307410122431844
:1009600083F8B020D0F8AC2030BC10472DE9F04F10
:100970009946DDE9094C4FF0FF3BDDF82CA048E03B
:10098000ACEB02035BB20D78002B02DD05FA03F538
:1009900003E0C3F1000325FA03F5EEB202DDCCF16A
:1009A000080301E0C2F10803DBB2834200D9034629
:1009B0000CEB03074FF0FF0808FA07F5CCF1080C21
:1009C00028FA0CF845EA080594F800C0AE430CEA92
:1009D000050C1A444CEA060CD2B284F800C0072A6F
:1009E00007D90022B9F1000F01D05D4600E00125D2
:1009F000294407F0FF0CBCF1070F08D94FF0000C99
:100A0000BAF1000F01D05D4600E001252C44C01A68
:100A1000C0B20028B4D1BDE8F08F7047411C0CD0A3
:100A2000074AB2F90010884201D1491E1180054AD7
:100A300000EB4000002102F830104FF0FF3070470B
:100A400010000020B0070020F0B5002201274FF071
:100A5000030C0B6807FA02F52B40AB422CD1066859
:100A600053000CFA03F4A64306600E79D0F800E0B8
:100A70009E4046EA0E0606600E79012E01D0022E37
:100A800012D18668A64386604E79D0F808E09E4071
:100A900046EA0E0686604668AE43466045688E7933
:100AA0009640B6B235434560C568A543C560CC796C
:100AB0009C40C3681C43C460521C102AC9D3F0BDBB
:100AC0004B07DB0E9A40C90810B500EB8100016AA4
:100AD0000F249C40A1430162016A1143016210BDD1
:100AE0000183704770B50646D0F83801008818B306
:100AF0000024351995F8B0000F2818D03068007818
:100B0000A04214D095F8400140B9D6F8342112B172
:100B1000214630469047012085F8B00095F8400105
:100B20002146401E85F84001304601F0B3FC641CAC
:100B3000E4B2802CDDD370BDB6F93001FFF76EFF53
:100B4000A6F8300170BDFEE77CB50121402000F021
:100B50001DFB01208DF8040000228DF806200321E2
:100B60008DF80510074D4FF4C0748DF80700009400
:100B700069462846FFF768FF21462846FFF7B0FF81
:100B80007CBD0000001802400A4602A1002000F0CF
:100B9000EFBB00004D61737465725F6865617274CC
:100BA000626561744572726F722025640A000000EC
:100BB0002DE9F0438BB0814640F28110049040F261
:100BC000012005904FF4C170069040F2022007907A
:100BD00004200890002401278DF824708DF80C4023
:100BE00030A1204600F0C4FB08ADCDE900544FF41D
:100BF000A05805AB012241464846029401F070F826
:100C000009AECDE900648DF80C4003AB02224146E9
:100C10004846029401F064F8CDE9005441F20148DD
:100C200007AB012241464846029401F059F8CDE94C
:100C300000648DF80C4003AB022241464846029402
:100C400001F04EF8CDE900544FF4C05804AB012236
:100C500041464846029401F043F8CDE900648DF81E
:100C60000C7003AB022241464846029401F038F86A
:100C7000CDE9005441F6010506AB0122294648465C
:100C8000029401F02DF8CDE900648DF80C7003ABEF
:100C9000022229464846029401F022F80BB0BDE832
:100CA000F08300004D61737465725F696E697469E9
:100CB000616C69736174696F6E0A000010B586B06B
:100CC0000021044604AA4FF47A70CDE90021039074
:100CD000042004900A46029103AB41F2060120462B
:100CE00000F0FEFF204603F04DFA204603F01CFA08
:100CF000642003F0FDF90121044800F01EFD04A169
:100D0000002000F035FB06B010BD000000080040D8
:100D10004D61737465725F6F7065726174696F6E37
:100D2000616C0A0010B50C46012201F0C4FB22469A
:100D3000BDE8104001A1002000F01ABB4D617374A2
:100D400065725F706F73745F536C617665426F6F2D
:100D50007475702025780A00052A0BD1064A11788F
:100D6000491CC9B21170022904D10021117005215A
:100D700003F06CB9704700001C00002070470000B1
:100D800008B50020009313460A46024900F0F0FA25
:100D900008BD0000C443000806490F20064A088029
:100DA00064211160054A10800548016005A10020FA
:100DB00000F0DEBA1E0000203400002028000020D1
:100DC000380000204D61737465725F706F73745FDB
:100DD00073796E630A00000001A1002000F0C8BA18
:100DE0004D61737465725F7072654F706572617486
:100DF000696F6E616C0A000001A1002000F0B8BAB2
:100E00004D61737465725F73746F707065640A000E
:100E1000FEE7704730B50F23C27801780125FAB19B
:100E2000144A126801F1E02102F4E062C2F5E062C6
:100E3000C2F30722C2F10404D3404278A24084786E
:100E40001C401443220181F80024007800F01F01A7
:100E50008D404009800000F1E020C0F8005130BD15
:100E600001F01F0085404809800000F1E020C0F833
:100E7000805130BD0CED00E0024908430249086092
:100E8000704700000000FA050CED00E030B50024CA
:100E900041F20145431B1460A8426FD02BDC41F2A4
:100EA0001105A0EB0503A84258D014DC41F205055A
:100EB000A0EB0503A84247D008DCB0F5805F41D025
:100EC0006FF48052D04239D1012072E0012B3ED024
:100ED0000B2B33D140E0072B46D004DC032B3FD053
:100EE000052B2BD13EE0A3F500736F3B3ED0B3F54D
:100EF000C07F23D13DE0B3F5C06F51D013DC40F289
:100F0000FF35A3F2FF30AB4240D006DCA3F580737F
:100F1000FF3B37D0012B11D136E001283AD0B0F594
:100F2000007F0BD13AE0A3F63F43B3F5804339D0BD
:100F3000012B39D0222B39D0812B39D01F480860A2
:100F4000002030BD002034E002201D4B02E01C4B8D
:100F500003201B1D13602CE004202AE0052028E05C
:100F6000062026E0072024E0082022E00920154B77
:100F7000F0E7144B0A201033ECE7FFE7114B0B208E
:100F80002833E7E70C2014E00D2012E00D4B0E2073
:100F90004033DFE70B4B0F205833DBE7102008E02E
:100FA000112006E0122004E0132002E0142000E0EB
:100FB00015200C60044901EBC00030BD00000206A2
:100FC0006C00002070080020E84200089F2803D130
:100FD000087808B1014870470020704730000906C2
:100FE00010B503F0A1F8002010BD10B5044601F0C3
:100FF00095F9204601F050F9002010BD10B50446C7
:1010000001F0ACFA204601F069FA002010BDD0F8DA
:101010000812097861B900210A4605E0D0F80C32BF
:1010200043F82120491CC9B290F805328B42F5D80B
:101030000020704730B401EBC102846802254FF0F4
:10104000FF3305EB4205635300238468062505EB57
:101050004202A35230BCC9B202F044BE30B401EB2C
:10106000C102846804254FF0FF3305EB420563534A
:101070008368C9B213F8124024F0010403F8124047
:1010800030BC02F02FBE00002DE9FC41074640694C
:101090004FF4C0550489B8690689C4B1DFF83C80B3
:1010A000B44214D801AB6A462946384602F00FFE16
:1010B000009838B9019828B1C0F80880C0F80C80B1
:1010C000C0F814806D1C641CADB2A4B2E8E73846C9
:1010D000BDE8FC41002100F074BD0000FD170008D0
:1010E0002DE9F0470446406900270589A069B0F85A
:1010F000089035BBBDE8F087A16807EBC706022062
:1011000000EB460831F90800FFF788FCA26822F8D6
:101110000800A168042000EB460831F90800FFF739
:101120007DFCA2687F1CFFB222F80800A1680020A5
:10113000062201F81600A16802EB46026D1C8852D7
:10114000ADB24D45D8D9D5E73EB50446D0F8A40098
:101150000088A8B120686946007800F5E060ADF825
:10116000000001208DF8030000208DF8020094F8A3
:1011700078008DF80400D4F8E00100F0B9FF3EBD1E
:1011800034F9A80FFFF74AFC20803EBD044A00292D
:10119000116801D0014300E08143116070470000F5
:1011A00030380240044A0029116801D0014300E0B0
:1011B000814311607047000040380240044A002912
:1011C000116801D0014300E08143116070470000C5
:1011D000203802407CB51D46144601AB6A4602F039
:1011E00076FD009931B9019921B10079A04201D968
:1011F00041F8245000987CBD2DE9FC41054640692A
:101200000E464088002831D006EB860105EB01141C
:10121000A96994F8282049881044884226D869682A
:10122000134F51F83000C06A90F800804FF0FF3043
:10123000A4F87200852084F82A0094F83200CDE9E1
:101240000007238E94F82910284602F01FFEE7625B
:10125000626F2AB1414628469047E06AB84205D1FC
:10126000F1B22846BDE8FC4102F018BDBDE8FC81A2
:10127000000004051FB501EB810100EB0114616B57
:1012800009B9A16B61630391012103AACDE9002192
:10129000029104F13C0394F83220218E00F020FDED
:1012A00004B010BD70B501EB810100EB01118C6B36
:1012B000A018202801D9FF2070BD002006E02618C4
:1012C0001D5C0E44401C86F83C50C0B29042F6D3E0
:1012D000886B10448863002070BD00002DE9F04148
:1012E000884600EB40012148154600EBC104E16A45
:1012F00001F0030002280BD0A06A626A801A401E27
:1013000001D5226A1044854202DD89072BD00546AB
:101310004DB30027A06A616A461A761E01D5206A7D
:101320000644D4E90801411AB14201DC616A461A57
:10133000AE4200DB2E46616AE0693246084441460F
:10134000FEF7DEFF606A3744B044AD1B3044606294
:10135000606A216A884201D100206062002DD9D1E3
:101360003846BDE8F0810020FBE700003807002088
:101370000FB408B504A900916A46039900F003F878
:1013800001B05DF814FB2DE9F04198B0804607A844
:10139000029040200026CDE90306CDE905681546F8
:1013A0000C4614F8011B002974D0252908D002A886
:1013B00000F073FB05980028F3DA18B0BDE8F0815F
:1013C0000020217823291BD02B2916D02D290ED0BF
:1013D00030290FD000222178A1F130030A2B13D23B
:1013E00002EB820201EB4202303A641CF3E740F068
:1013F000010007E040F0020004E040F0040001E0DA
:1014000040F00800641CDCE70023CFB22E2F0BD184
:1014100014F8011FA1F130070A2F05D203EB830353
:1014200001EB4303303BF3E76C290DD068290BD067
:1014300070294AD00BDC252914D058292BD06329D8
:101440000CD0642911D112E014F8011BECE77329C8
:101450002CD0752916D0782907D11CE02868011DE9
:101460002960017802A800F018FB641CA2E7296833
:101470000F1D2F600968CDE900200A2202A800F0A4
:101480003EFAF2E729680F1D2F600968CDE90020B8
:101490000A2207E023E029680F1D2F600968CDE9C3
:1014A0000020102202A800F08BFADEE72868011D58
:1014B0002960076817F8011B0029D6D002A800F0A0
:1014C000ECFA05980028F5DACFE72868011D2960B5
:1014D00001680820CDE9000603461022E2E70598DE
:1014E00000287FF76AAF049820B1024607A940465A
:1014F000FFF7F4FEDDE90410084405905DE7000005
:101500002DE9F05F8B46204982460025B1F90000A5
:10151000984616461B4C401C05E00EB1227852B18D
:101520006D1C2DB21834854201DC082DF5DB4FF01F
:10153000FF30BDE8F09F8946854201D1A9F800003F
:1015400000F052FE07464FF6FF714046884500D333
:101550000846D9F80410B94207D9C91B814204D9F9
:101560003918C9F8041002F0C3FD08EB0700C4E9FC
:1015700003B0C4E901A60A986061012020702846E2
:10158000D7E70000B0070020100000200CB50022B3
:10159000274900920192086840F4803008604FF4B7
:1015A000A043086800F4003001900098401C0090AF
:1015B000019810B900989842F3D10868800334D597
:1015C000012001901A484030026842F080520260C7
:1015D0001848026842F44042026015480830026828
:1015E0000260026842F400420260026842F4A052C3
:1015F0000260031F104A1A600A6842F080720A6093
:101600000A689201FCD50D4940F205720A60016832
:1016100021F003010160016841F0020101600168ED
:10162000C1F381010229FAD10CBD01920CBD000069
:10163000003802400070004008544007003C02405F
:1016400002F040BC124810B5016841F4700101601D
:101650001048016841F0010101600E4A0021083282
:10166000116002680C4B1A400260031D0B4A1A609D
:10167000026822F48022026006480C300160FFF705
:1016800085FF03494FF000608039086010BD0000FD
:1016900088ED00E000380240FFFFF6FE1030002425
:1016A00010B50A4C0221204600F053F800280CD057
:1016B000204600F04CF8064908600221204600F060
:1016C00039F8BDE8104000F0CDB810BD000800406A
:1016D000180000203EB501210420FFF763FD1E2005
:1016E0008DF8000001208DF801008DF802008DF8C2
:1016F00003006846FFF78EFBA720ADF8000000202E
:1017000040F2E731ADF80800094CADF80200019154
:101710008DF80A006946204600F032F801220221C5
:10172000204600F022F80021204600F006F83EBDD9
:1017300000080040C943018270470029018802D097
:1017400041F0010101E021F0010101807047406A90
:10175000704702460020138A92890B4202EA010276
:1017600002D0002A00D001207047002A828901D0CF
:101770000A4300E08A4382817047C16270470000DB
:1017800030B50288164C174DA0420DD0A8420BD0A0
:10179000B0F1804F08D0144B984205D0134B9842BB
:1017A00002D0134B984203D122F070034A881A43A7
:1017B000104B984206D0104B984203D022F440734D
:1017C0000A891A4302804A68C2620A880285A042D6
:1017D00001D0A84201D1897A01860121818230BDE0
:1017E00000000140000401400004004000080040E7
:1017F000000C004000100040001400402DE9F041B2
:10180000044690F87E0048B3022A03D0032A01D090
:10181000052A23D16269A088127A00EBC200081A57
:10182000C0F3C705A16805EBC506022000EB46071B
:10183000C85FFFF7F3F8A168C853A168042000EB64
:101840004607C85FFFF7EAF8A168C853A1680020FF
:1018500001F8160029462046FFF7ECFB0020BDE802
:10186000F08100002DE9F0414FF6FF7400F0BCFC60
:10187000204D0646204968688319002215E0087843
:10188000C0070FD0086998421DD84869C0B1B6FB9F
:10189000F0F700FB1767C01B032708610F70A04219
:1018A00000D20446521C12B21831B5F9000082422F
:1018B000E5DD20466C6002F01BFC00260E4C13E0B8
:1018C00002200870EEE7C01A0861E8E72078810777
:1018D00007D520F002002070A26812B1E1686068AC
:1018E0009047761C36B21834B5F900008642EDDD1B
:1018F000BDE8F08110000020B0070020FEE72DE9D0
:10190000FC5F0E008046DDE90C47C6F100009946F9
:101910009246834600D40846012502E0B0FBFAF067
:101920006D1C5045FAD2A94500D94D4624B1002E70
:1019300001DB780700D5641EB80702D5B9F1000FA6
:1019400010D0F8070ED16CB12046641EA84209D908
:101950002021404600F0A1F8D8F80C000028F2DA67
:10196000BDE8FC9F002E02DA5E462D2102E07807DA
:1019700007D52B21404600F090F8D8F80C0000283D
:10198000EEDB07F00300022810D1B9F1000F0DD1F2
:1019900064B12046641EA84208D93021404600F0B8
:1019A0007CF8D8F80C000028F2DAD9E7CDE9004736
:1019B0004B4652463146404600F002F8D0E7000060
:1019C0002DE9F84F8246DDE90A4B01259946174675
:1019D000884608462E4602E0B0FBF7F0761CB84277
:1019E000FAD2B14500D94E465FEACB701AD1CCB1DC
:1019F0005FEA8B7002D5B9F1000F02D02020009071
:101A00000AE03020FBE75046009900F046F8DAF88B
:101A10000C0000283BDB2CB12046641EB042F2D8FB
:101A200000E07D43B8FBF5F0B84201D3012000E0AF
:101A300000204A46A9F10109012A01DD012100E047
:101A400000210843EDD1DFF84C90B8FBF5F000FB26
:101A5000158819F80010504600F01FF8DAF80C004D
:101A6000002803DBB5FBF7F5002DEED15FEACB7064
:101A70000DD0002C0BD02046641EB04207D9202187
:101A8000504600F00AF8DAF80C000028F1DABDE858
:101A9000F88F0000B2430008704710B50446D4E93F
:101AA0000130421C934205DB23681954A260E068B0
:101AB000401CE060D4E90102824209D1216820691A
:101AC000FFF70CFCA168884203D04FF0FF30E060C4
:101AD00010BD0020A06010BD2DE9FC411C468C46C5
:101AE000DDE908581746D0F8E4310A9E01AA694694
:101AF00060469847009911B10846BDE8FC8101791C
:101B0000B94201D82348F8E707EB470136B102682C
:101B100012F82120D20701D01F48EEE75CB1042360
:101B2000026803EB8106D5F800C09359634505D9D7
:101B30001A482B60E1E74FF00060DEE7012303EB7A
:101B4000810107EB4703525C88F8002000680821F8
:101B500001EB83018659092A06D0415832462046B6
:101B6000FEF7CEFB2E6013E040582968034601B90A
:101B700031460A1802E004F8011B401C017809B143
:101B80009042F8D3C11A2960B14201D200210170FC
:101B90000020B2E711000906010001060500040556
:101BA000704770477047704770477047704770477D
:101BB0007047016A0978002902D1812200F07BBCBC
:101BC00070472DE9FE4F044640690025032206892F
:101BD000A0698A46B0F8088094F87E00002811D0E9
:101BE000002E7BD04FF00009CDF80090CDF8049086
:101BF000CDF8089070E0032A06D0052A60D00B2AA1
:101C000065D0FF20BDE8FE8F606850F8360041695E
:101C1000096800293FDB006ABAF1000F44D001785F
:101C2000A1B3F0291CD8A26805EBC50112F8113048
:101C30005B1CDBB202F811300278934210D1A2682B
:101C4000204602F81190CDF80090CDF804906A4635
:101C50002946CDF8089000F0BDF8E0B905223BE038
:101C60000078FC2819D105EBC5070621A06801EB17
:101C7000470142182946204600F0ACF80028A06829
:101C800010F8171003D021F0010102E007E041F045
:101C9000010100F817100B221EE00028FBD1294695
:101CA000204602F01FF8F6E70078FF2801D0FE2852
:101CB000F1D1A06805EBC50110F81100C007ECE7F1
:101CC0006A462946204602F091F8E4E706E06D1CDA
:101CD000761CEDB2B6B2032246458CD9002091E7BE
:101CE0002DE9FF4F83B09146DDE910768246D0F8AA
:101CF000E43101AA694604989847044600980028F0
:101D000003D12179494503D82E4807B0BDE8F08FAB
:101D100009EB490526B1206810F82500022811D0EA
:101D20000121206801EB850110F80180042101EBFD
:101D300085014658386848B1B04207D0B8F1090F5C
:101D400002D03BE02048E0E7B04237D2DAF8242066
:101D500040460699904700900028D6D10820216877
:101D600000EB850B3A6851F80B000699FEF7C8FAAC
:101D7000B8F1090F07D13868B04204D223680022B5
:101D800053F80B100A543E60019850B150F82930B6
:101D9000494633B10A4621465046984700900028EC
:101DA000B3D1206810F82500400705D5DAF8E831EE
:101DB00050464A46049998470020A6E703483E60EB
:101DC000A3E7000011000906020001061000070643
:101DD000704770472DE9F74F8AB017460A98426955
:101DE00010895289C00000EBC1030A98D20002EBAF
:101DF000C1014068002601EB000A0344DAF8000044
:101E00003546B34680680690186840690088C0F37C
:101E10000A003880BE70CDF810B0CDF814B006EBD3
:101E200046031420DAF8001000EB83005A460858E5
:101E30000368190C13F0FF0431D005EB0409B9F164
:101E4000400F2CD8A4F1010C012303EBDC0CCDF8DE
:101E50001CC000880DF1200C0DF11C08CDE90223F7
:101E6000CDE9008CC0F307209346024604AB0A98E4
:101E7000FFF732FE18B1FF200DB0BDE8F08F07EB81
:101E8000D50205F00701121DCDE9002100232046EF
:101E9000CDF808B01A4604A9FEF768FD4D4606982D
:101EA000761CF6B20078B042B5D801206D1E00EB6A
:101EB000D500F8700020DFE730B40A88D3090F2B73
:101EC00035D2DFE803F02D08341818181818181840
:101ED000181F1F342600802A06D090F87B20002A85
:101EE00025D030BC00F061BB90F87C1000291ED0DA
:101EF00030BC01F0B3BE90F87E20002A17D030BC71
:101F000000F02CBC90F87A20002A10D030BC00F0F1
:101F100039BD90F87D20002A09D030BC00F0A2BB6A
:101F2000026A1278002A02D030BC00F04FBB30BCED
:101F3000704700002DE9F04F01268BB007460024C2
:101F40008DF8256067488DF826408DB28DF82760A2
:101F50004FF002084FF005094FF0060A874231465C
:101F60005ED10120FFF712F9DFF87CB109220B21C5
:101F70005846FEF7A5FD09220C215846FEF7A0FDA4
:101F80008DF820804FF4C0508DF8218007908DF897
:101F900022408DF8236007A95846FEF755FD012120
:101FA0004806FFF7FFF83846FEF7E0FA6846FEF706
:101FB00033FC8DF806408DF807608DF802408DF8EF
:101FC00003408DF8049002948DF805A0ADF8005000
:101FD00069463846FEF74EFB8DF816408DF81740DF
:101FE0008DF81860ADF80C40ADF81040ADF80E401B
:101FF000ADF81240ADF814408DF8196003A8FEF753
:10200000CBFA012202213846FEF72CFB14208DF872
:1020100024008DF825408DF826608DF827605AE061
:102020000220FFF7B3F8DFF8C4B0092205215846B3
:10203000FEF746FD092206215846FEF741FD8DF8C0
:10204000208060208DF8218007908DF822408DF847
:10205000236007A95846FEF7F7FC01218806FFF721
:10206000A1F83846FEF782FA6846FEF7D5FB8DF8F0
:1020700006408DF807608DF802408DF803408DF81A
:10208000049002948DF805A0ADF8005069463846DA
:10209000FEF7F0FA0E20FEF7A9FB0E208DF81600D1
:1020A0008DF817408DF81860ADF80C40ADF8104071
:1020B000ADF80E40ADF81240ADF814408DF819603F
:1020C00003A8FEF769FA012202213846FEF7CAFA90
:1020D00040208DF8240009A8FEF79CFE0BB00020DC
:1020E000BDE8F08F006400400000024000040240A0
:1020F00030B585B00A880092002201928B788DF865
:1021000009308DF80820CA788DF80A2000226B4625
:1021100005E08C189D182479521CEC72D2B2CC7850
:102120009442F6D81946FEF787FB042802D0002017
:1021300005B030BD0120FBE710B50446054B002279
:1021400041F20301FFF746F8D4F8080200210170BC
:1021500010BD00000F10000870472DE9FE4399469E
:10216000DDE90A7615468846044602AB00F069F8B8
:1021700068BB012D02D0022D06D028E09DF8081082
:10218000204601F08BFD22E09DF8080000EB800066
:1021900004EB0010B0F97200FEF740FC01469DF818
:1021A000080000EB800004EB0010A0F872109DF80E
:1021B0000800852100EB800004EB001080F82A1055
:1021C0009DF8080000EB800004EB0010C662CDE92A
:1021D00000764B4642462946204601F057FE00282D
:1021E00000D0FF20BDE8FE8310B50648FFF7AFFA28
:1021F000054980B20968884201D9401A10BD081A01
:1022000010BD0000000800401800002000680078A1
:10221000704710B5002303EB830400EB041494F81B
:102220002A402CB15B1C13F0FF03F4D0FF2010BD3B
:10223000137003EB830200EB021080F829100020DA
:1022400010BD70B5002404EB840500EB051595F86E
:102250002A606EB1852E0BD095F828608E4207D18A
:1022600095F82950954203D103B11C70002070BD30
:10227000641C14F0FF04E6D0FF2070BD01EB810167
:1022800000EB0110416B21B1806B081A1060002037
:1022900070470020FAE70000F8B505461C4B002205
:1022A00041F21701FEF796FF002785F8DC713C46E6
:1022B0004FF47A7614E0D5F89C0030F8240000043E
:1022C000000C0BD0B0FBF6F3124A214628460097CB
:1022D000FFF716F9D5F8A01021F81400641CE4B239
:1022E000D5F898000078A042E5D8D5F8A400008879
:1022F00000280BD0B0FBF6F1B0FBF6F30091064AD4
:1023000000212846FFF7FCF8A5F8A800F8BD00005A
:10231000EB0F0008410900084911000870B5054697
:1023200000240BE0D5F8A00030F91400FEF776FB8E
:10233000D5F8A01021F81400641CE4B2D5F8980078
:102340000078A042EED835F9A80FFEF767FB288089
:1023500070BD00002DE9F8431746DDE90896002519
:1023600001EB8102984600EB0214022E2CD0032EC2
:102370002AD0042E28D0052E26D0B4F97200FEF7FC
:102380004DFBA4F8720084F82870A4F8308084F81B
:10239000329084F82A6084F82B506563A56384F832
:1023A0005C5084F85D5084F85E50256684F8645073
:1023B00084F8655084F8665084F8675084F870504B
:1023C00000206567BDE8F8834123024A0095FFF7C6
:1023D00097F8D6E7F9110008FFF77CB910B5044665
:1023E000FFF75AFF2046BDE8104000F077B810B55F
:1023F0000446FFF793FF2046BDE8104000F0AEB85A
:1024000030B501EB810100EB01118C6BA018202885
:1024100002D84D6BA84201D9FF2030BD002006E054
:1024200025180D4495F83C501D54401CC0B29042F4
:10243000F6D3886B10448863002030BD4FF4A06051
:10244000FEF71AFDFEF780FBFEF748FA104D0F4924
:102450002846FFF74DFE4FF480340C492846FFF71D
:1024600047FE0021491CA142FCDB0021491CA1427E
:10247000FCDB0020401CA042FCDB0020401CA042F2
:10248000FCDB0020401CA042FCDBE6E70000002053
:10249000006400400EB541F4E061ADF80010012188
:1024A0008DF8021000218DF80310D0F8E001694684
:1024B000FFF71EFE0EBD0EB50023ADF800308DF8FF
:1024C00002308DF8042002238DF805108DF80330BA
:1024D000D0F8E0016946FFF70BFE0EBD38B50446A3
:1024E0001C4B002241F20C01FEF774FE194B002236
:1024F00041F20D012046FEF76DFED4F83801008848
:10250000002825D0D4F83C110978002920D04FF4B8
:102510007A72B0FBF2F1B0FBF2F300910E4A0021A7
:102520002046FEF7EDFFA4F830010021601890F876
:10253000B0200F2A08D0226812788A4204D0D4F83A
:102540003C21127880F84021491CC9B28029EDD382
:1025500038BD0000FD0F0008E50A000810B504466C
:10256000B0F93001FEF75AFAA4F8300110BD10B5E9
:1025700086B0202204AC04920094012205ABCDE980
:10258000013201EB810100EB0114039204F13C03E1
:1025900094F83220218EFFF79FFA002803D1049887
:1025A00060630020A06306B010BD30B4CA78082A6A
:1025B0000AD10A78D0F8384202F07F058A888B79F0
:1025C0002946A44630BC604730BC704770B504460D
:1025D00090F878000A467F2803D0052801D0042807
:1025E0003FD1517919B123681B78994239D11179BA
:1025F000802925D009DC01291CD0022931D17F286E
:1026000001D005282DD1042126E081291ED0822960
:1026100027D12046FFF7FAFDD4F8942005460AB1E9
:10262000204690472168FF2008702946204601F087
:1026300065FC10E07F2801D0042812D105210BE0B1
:10264000052801D004280CD17F2105E0D4F8901092
:1026500009B12046884700212046BDE8704001F0BE
:10266000F5BC70BD2DE9FE43044608784FF0000824
:1026700000F07F068878012818D00879A51900F0A5
:102680007F07D4F83C01007885F8400195F8B00048
:10269000B84207D0D4F8D8313A4631462046984758
:1026A00085F8B07095F8B00028B329E0206800786C
:1026B000B0421ED100F5E060ADF8000001228DF8B7
:1026C00003208DF8028094F878008DF8040094F8C7
:1026D000DC31414633B140F080008DF8040084F8CD
:1026E000DC1101E084F8DC216946D4F8E001FFF751
:1026F000FFFCBDE8FE83D4F8D42131462046904744
:1027000095F8B0000F28F4D000251FE0D4F89C0005
:1027100050F82500C0F307418E4215D187B2D4F896
:10272000A00030F91500FEF779F94FF47A70B7FB85
:10273000F0F3094A29462046CDF80080FEF7E0FE76
:10274000D4F8A01021F815006D1CEDB2D4F8980053
:102750000078A842DAD8CCE7410900082DE9F04F0B
:102760000E46044602220021B07889B00D4610B111
:1027700001287DD0C2E0D4F814C0A369BCF80400DD
:102780009F88A0B9BAE0022A02D0042A0FD111E032
:102790006368B6F8008053F830305B691B884345A6
:1027A00001D1042203E06D1C401CEDB280B2B8429E
:1027B000E9D9A3E0BCF806000590C00000EBC50015
:1027C000069062680027BA4610588068079043E078
:1027D000CDF80CA0CDF810A0069A63684FF0140C49
:1027E00050469A5807EB47030CEB8303D2585FEA35
:1027F000020970D099F800205FEA02082AD0F37825
:1028000001EB080BBBEBC30F24D803AACDE90020D2
:1028100001F00702824606EBD101029000234046F8
:10282000091DFEF7A3F8A8F10101012000EBE10169
:1028300008AA00920891CDE901A0D9F8000003ABE5
:10284000C0F30722010C2046FFF74AFA002842D1C4
:102850000BF0FF017F1CFFB207980078B842B7D891
:10286000E06808B36268059952F83110496C00E0DD
:1028700014E00E88C6B130F91500FEF7CFF84FF41A
:102880007A70B6FBF0F3CDF800A029462046226905
:10289000FEF736FEE16821F815002FE06069A269B5
:1028A00001210089138938BB28E0012904D00429BB
:1028B00012D0052920D156E06268378852F83020BE
:1028C00052691288BA4201D1042115E06D1C401CE6
:1028D000EDB280B210E04CE0616851F830100A6A45
:1028E0001178FD2907D0FC290CD0C8B2FF281AD0D6
:1028F000FE2918D03DE005219842D6D9002009B024
:10290000BDE8F08FA16805EBC50211F81210C907E8
:10291000F1D005EBC5010622A06802EB410101449C
:10292000D4F8E0012AE0A16805EBC506022000EB1F
:102930004607C85FFEF772F8A168C853A168042073
:1029400000EB4607C85FFEF769F8A168C853A068A6
:1029500010F8161021F0010100F816102946204643
:10296000FEF768FBCAE76A4629462046FFF732FAB7
:1029700008B1FF20C3E76946D4F8E001FFF7B8FBD0
:10298000BCE700002DE9F04F8DB004460020019017
:102990006069D4F818C081460D4603270088BCF84A
:1029A00000600021E0B10423B04217D8626803EB55
:1029B000C00812F80880B8F1010F75D952F830201C
:1029C000B5F8008052691268424502D1012703918F
:1029D00030E0491C401CC9B280B2E5E7032F29D181
:1029E000B9F80200BCF80230002100285CD00426AF
:1029F00098421DD8626806EBC00C12F80CC0BCF1FE
:102A0000030F78D952F83020B5F800C0126A126866
:102A1000624508D103916168022751F83000C06A0D
:102A20000078019006E0491C401CC9B280B2DFE783
:102A3000032F60D0E87800264FF00069082804D002
:102A4000CDE9006900233A4674E204AB3A462046D9
:102A50000399FFF7F6FBC8B9012F02D0022F0BD064
:102A600014E09DF8101001EB810104EB011191F8C5
:102A70002A1004291FD009E09DF8101001EB8101F4
:102A800004EB011191F82A10052914D0297949097C
:102A9000DFF86084DFF860A405F108020DF1180B7F
:102AA0000C92072927D200E025E0DFE801F00BFEB9
:102AB000FDFCFBFAF9002979802901D00621E7E71E
:102AC0000421E5E7012F02D000287DD01AE100287B
:102AD000FCD19DF8100000EB800004EB001191F890
:102AE0002A00022801D0012000E000200028EDD1BA
:102AF00005E0FFF732FB0DB0FF20BDE8F08FB1F924
:102B00007200411C1BD0FDF789FF01469DF81000A3
:102B1000412300EB800004EB0010F84AA0F872108B
:102B200000969DF810102046FEF7EAFC01469DF83D
:102B3000100000EB800004EB0010A0F872109DF86C
:102B4000100000EB800004EB0010018E029190F861
:102B5000328090F82B102879C0F30012914202D0F5
:102B6000CDE9008AEFE3C0F34200C0F107026B1D1C
:102B700008929DF810102046FEF794FB10B1CDE9A5
:102B80000089E0E39DF81000202100EB800004EBB9
:102B9000001090F82B0041EA00108DF81800012079
:102BA00059460E54401C0828FBD306AB3946204634
:102BB000039A01F02FF99DF8100000EB800004EB60
:102BC000001090F82B1000E014E071B1002180F8A3
:102BD0002B102879C00769D09DF810102046FEF709
:102BE00049FB20B1CDE90080ADE30121EFE79DF87D
:102BF0001010F2E39DF8100000EB800004EB0011D0
:102C000091F82A00032801D0012000E000200028CC
:102C100078D1B1F97200411C1BD0FDF7FFFE0146CF
:102C20009DF81000412300EB800004EB0010B34A34
:102C3000A0F8721000969DF810102046FEF760FC78
:102C400001469DF8100000EB800004EB0010A0F896
:102C500072109DF8100000EB800004EB0010018E54
:102C6000029190F8328090F82B102879C0F300126E
:102C700091427FF475AFC0F34200C0F107026B1DB3
:102C800008929DF810102046FEF70CFB00287FF4F8
:102C900076AF9DF8100000EB800004EB001106E019
:102CA000F4E370E333E330E231E12CE036E391F812
:102CB0002B00C8B1002081F82B002979C90715D055
:102CC0009DF8100000EB800004EB0010B0F97200DA
:102CD000FDF7A4FE01469DF8100000EB800004EB18
:102CE0000010A0F87210E8E10120E4E7602141EA59
:102CF00000108DF81800012059460E54401C082879
:102D0000FBD301E2F5E0012F01D0B8B3DEE6B5F860
:102D10000510029195F807A040B104AA3946204653
:102D2000FFF777FA28B1CDE900A80CE3CDE900A8B8
:102D300009E30220CDE900A0DDE902329DF8101080
:102D40002046FFF707FB28794108C90726D09DF8E0
:102D50001010C0F3810001EB8101C0F1040004EB0D
:102D60000111089048639DF8101020460C9B089AAA
:102D7000FEF798FA18B1CDE900A9E4E234E09DF835
:102D800010102046FEF776FA10B1CDE900A0DAE285
:102D90009DF81010204600F081FF13E0C00711D00D
:102DA000297A687AEA7A01EB0020A97A090401EB12
:102DB0000261421808929DF81010204601F03AF97D
:102DC0000028D8D160208DF8180002988DF81900DD
:102DD000000A8DF81A008DF81BA0042059460E54E5
:102DE000401C0828FBD38FE19DF8100000EB800009
:102DF00004EB001191F82A00022801D0012000E024
:102E00000020002875D1B1F97200411C1BD0FDF7DC
:102E100005FE01469DF81000412300EB800004EB05
:102E20000010364AA0F8721000969DF81010204647
:102E3000FEF766FB01469DF8100000EB800004EBF6
:102E40000010A0F872109DF8101001EB810004EB47
:102E50000010028E029290F832802A7990F82B00AE
:102E6000C2F3001290427FF47BAE08AA2046FFF71F
:102E700005FA089800283FF423AF07289DF81000B2
:102E800000EB800004EB001191F82B0018D9A8B1D9
:102E9000002081F82B0000018DF818009DF810101B
:102EA0000BF1010307222046FFF7AAFA00287FF45E
:102EB00066AE29E12046019990472FE20120E8E71C
:102EC000F0B1002081F82B00089A0001C2F107033D
:102ED00040EA4300401C8DF818009DF810100BF1DB
:102EE00001032046FFF78CFA0028E0D159460898E4
:102EF00009E027E22100000800000305F91100089D
:102F00000120DFE70E54401C0828FBD3FCE0012F12
:102F100001D0E0B316E2B5F80510ED798A4650B15C
:102F200004AA39462046FFF774F930B15346CDE97B
:102F300000583A4656E20B46F9E70320CDE9005027
:102F400053469DF810102046039AFFF703FA9DF8A8
:102F500010102046FFF70BFB20B1CDE9005053467F
:102F60003A463FE208AA9DF810102046FFF786F97E
:102F7000089A042A16D941208DF818008DF819A056
:102F80004FEA1A208DF81A008DF81B5000E02BE054
:102F90008DF81C20100A8DF81D00100C8DF81E00F5
:102FA000100E6FE2C2F10400432141EA80008DF867
:102FB00018008DF819A04FEA1A208DF81A008DF824
:102FC0001B500BF104039DF810102046FFF718FA70
:102FD00008B1534680E108985946001D01E00E549F
:102FE000401C0828FBD319E19DF8100000EB80007D
:102FF00004EB001191F82A00032801D0012000E021
:103000000020002886D1B1F97200411C1BD0FDF7C9
:1030100005FD01469DF81000412300EB800004EB04
:103020000010FF4AA0F8721000969DF8101020467C
:10303000FEF766FA01469DF8100000EB800004EBF5
:103040000010A0F872109DF8100000EB800004EB57
:103050000010B0F830A090F8328028794108C907F4
:1030600035D0C0F38100C0F1040208929DF8101021
:1030700020460C9BFEF716F920B153463A46CDE99F
:103080000089AFE19DF8100000EB800004EB001018
:10309000B0F97200FDF7C2FC01469DF8100000EB8C
:1030A000800004EB0010A0F872109DF81000089941
:1030B00000EB800004EB001041639DF8100001213B
:1030C00000EB800004EB001080F82A1050E1C007EC
:1030D00011D0287A697AEA7A00EB0120A97A0904EA
:1030E00001EB0261421808929DF81010204600F092
:1030F000A1FF0028C1D160208DF818000120594699
:103100000E54401C0828FBD33CE2012F01D0E0B351
:1031100018E10028FCD19DF8100000EB800004EBC2
:10312000001191F82A00032801D0012000E00020BE
:103130000028EDD1B1F97200411C1BD0FDF76EFCE7
:1031400001469DF81000412300EB800004EB0010C5
:10315000B34AA0F8721000969DF810102046FEF7B2
:10316000CFF901469DF8100000EB800004EB001041
:10317000A0F872109DF8101001EB810004EB001014
:10318000028E029290F8328000E04EE02A7990F8A8
:103190002B00C2F3001290427FF4E2AC08AA204652
:1031A000FFF76CF89DF81010089A01EB810004EB12
:1031B0000010072A90F82B004FEA001019D98DF85B
:1031C00018000BF1010307222046FFF719F9002828
:1031D0007FF4D5AC9DF8100000EB800004EB0010EC
:1031E00090F82B1019B1002180F82B10CAE10121B1
:1031F000FAE7C2F1070340EA4300401C8DF81800CB
:103200000BF101032046FFF7FBF80028E0D15946F7
:10321000089800E00E54401C0828FBD306AB394642
:103220002046039A00F0F6FDE1E49DF8100000EB63
:10323000800004EB001191F82A00022801D001203F
:1032400000E0002000287DD1B1F97200411C1BD0A4
:10325000FDF7E4FB01469DF81000412300EB8000E0
:1032600004EB00106E4AA0F8721000969DF8101042
:103270002046FEF745F901469DF8100000EB80005E
:1032800004EB0010A0F872109DF8101008AA01EBD2
:10329000810004EB0010B0F8308090F832502046E6
:1032A000FEF7ECFF089A002A3FF40AAD9DF81010D3
:1032B000072A01EB810004EB001090F82B004FEA85
:1032C00000100DD98DF818000BF1010307222046DC
:1032D000FFF796F888B955E1CDE900593A46A4E3DD
:1032E000C2F1070340EA4300401C8DF818000BF1BF
:1032F00001032046FFF784F808B14346ECE759463E
:10330000089800E00E54401C0828FBD33AE1E97A03
:10331000AD68012F61F31F6501D018B158E2002894
:1033200082D055E29DF8100000EB800004EB001005
:10333000B0F97200FDF772FB01469DF8100000EB3A
:10334000800001E0B2E154E204EB0010A0F872103A
:103350009DF81000802100EB800004EB001080F845
:103360002A109DF8100000EB800004EB0010C562ED
:103370009DF8100000EB800004EB0010426F002A63
:103380007FF498AD24E22979012F01F0030A0AD0D5
:10339000BAF1000F79D0BAF1020F76D0BAF1010F6D
:1033A0003FF48EAC82E1BAF1000F09D0BAF1010FFF
:1033B0006FD0BAF1020F6BD0BAF1030F7ED007E2E3
:1033C000B5F80510EE79894640B104AA3946204681
:1033D000FEF71FFF38B14B4601E06BE00B46CDE92D
:1033E00000683A4621E30520CDE900604B469DF890
:1033F00010102046039AFEF7ADFF2879C0F3800134
:103400009DF8100000EB800004EB001080F85C10C9
:103410009DF81000297A00EB800004EB001001E019
:10342000F911000880F85D109DF810102046FFF794
:103430009EF820B1CDE900604B463A46F5E208AA75
:103440009DF810102046FEF719FF9DF8100008990E
:1034500000EB800004EB00100166C2208DF818001C
:103460008DF819904FEA19208DF81A0008988DF8F8
:103470001C00010A8DF81D10010C8DF81B608DF8E1
:103480001E10000E8DF81F005BE3DAE0CFE100E0D4
:1034900014E0002886D19DF8101001EB810004EBA8
:1034A000001090F82A00052801D0012000E000203B
:1034B0000028EFD1204600F0F1FB9CE30028E9D181
:1034C0009DF8100000EB800004EB001191F82A0039
:1034D000052801D0012000E000200028DAD1B1F950
:1034E0007200411C1BD0FDF799FA01469DF81000AF
:1034F000412300EB800004EB0010FF4AA0F872109B
:1035000000969DF810102046FDF7FAFF01469DF841
:10351000100000EB800004EB0010A0F872109DF882
:103520001000BAF1020F00EB800004EB0010018ED6
:10353000029190F8321005913AD1A97980F85D1086
:10354000687908AA00F07F039DF810102046FEF766
:1035500095FE0898B8B99DF8100000EB800004EBC8
:10356000001090F8651099420DD190F86610C120B6
:1035700040EA81008DF81800012059460E54401C85
:103580000828FBD3DDE29DF81000C3EBC30200EB7B
:10359000800004EB001090F86410114481639DF8E2
:1035A000100000EB800004EB0010406B81427DD8DE
:1035B0009DF81000012500EB800004EB001090F84E
:1035C000381080F864101DE080F8655008AA9DF856
:1035D00010102046FEF752FE089807281DD98DF8D6
:1035E00018500BF1010307229DF810102046FEF73A
:1035F00007FFA0BB06AB39462046039A00F00AFC41
:103600006D1CEDB29DF8100000EB800004EB001083
:1036100090F85D10A942D7D2EDE245F080008DF818
:1036200018005D466B1C9DF810102046089AFEF7A6
:10363000E7FEA0B9089800E02E54401C0828FBD3F0
:10364000E3E0002832D19DF8100000EB800004EB8D
:10365000001191F82A00042802D0012001E0C5E001
:1036600000200028EED1B1F97200411C1BD0FDF7FB
:10367000D5F901469DF81000412300EB800004EBD2
:1036800000109D4AA0F8721000969DF81010204678
:10369000FDF736FF01469DF8100000EB800004EBBB
:1036A0000010A0F87210BAF1000F00E0DAE014D0B8
:1036B0009DF81000A97900EB800004EB001008AA27
:1036C00080F85D1068799DF8101000F07F032046A7
:1036D000FEF7D4FD0898D0B131E09DF8100000EB62
:1036E000800004EB0010018E029190F832100591D9
:1036F0002979C1F3800180F85C109DF81000297AC7
:1037000000EB800004EB001080F85D102CE09DF8C9
:10371000100000EB800004EB001090F86510994257
:103720000DD190F86610C12040EA81008DF8180094
:10373000012059460E54401C0828FBD301E29DF895
:103740001000C3EBC30200EB800004EB001090F804
:103750006410114481639DF8100000EB800004EBBD
:103760000010406B81427DD89DF81000012500EBD0
:10377000800004EB001090F8381080F864101DE011
:1037800080F8655008AA9DF810102046FEF776FDD7
:10379000089807281DD98DF818500BF1010307224E
:1037A0009DF810102046FEF72BFEF8B906AB3946FF
:1037B0002046039A00F02EFB6D1CEDB29DF8100020
:1037C00000EB800004EB001090F85D10A942D7D206
:1037D00011E245F080008DF818005D466B1C9DF8E5
:1037E00010102046089AFEF70BFE40B10599CDE96E
:1037F0000019DDE902313A462046FFF77AB9089808
:1038000000E02E54401C0828FBD306AB3946204666
:10381000039A00F0FFFA0898C0F107019DF8100024
:1038200000EB800004EB001080F86610E3E14FF03D
:10383000100A012F02D0002814D120E1F0B328791A
:1038400010F0010F0ED1B5F805B095F8079004AA55
:1038500039462046FEF7DDFC28B1CDE900985B46ED
:103860003A46E2E008E10420CDE900905B469DF88D
:1038700010102046039AFEF76DFD9DF810000121FF
:1038800000EB800004EB001080F867102879C0F38B
:1038900080019DF8100000EB800004EB001080F820
:1038A0005C102879800712D5287A697AEA7A00EBC9
:1038B0000120A97A090401EB026100E01EE0014445
:1038C0009DF8100000EB800004EB00100166A020C2
:1038D0008DF818008DF81CA08DF819B04FEA1B2048
:1038E0008DF81F608DF81A008DF81E608DF81B9002
:1038F0008DF81D6025E10000F91100089DF8100009
:1039000000EB800004EB001090F86710012902D052
:10391000022945D06FE1B0F97200411C1BD0FDF7C0
:103920007DF801469DF81000412300EB800004EB78
:103930000010C94AA0F8721000969DF81010204699
:10394000FDF7DEFD01469DF8100000EB800004EB62
:103950000010A0F87210287900F07F0800069DF88A
:10396000100000EB800004EB001090F8651001F1EE
:10397000010105D541457DD1022180F86710F5E0B0
:10398000414578D180F8658028E19DF8100000EB72
:10399000800004EB001090F83220CDE9002942E0CD
:1039A0002979C90768D0B0F97200411C1BD0FDF716
:1039B00035F801469DF81000412300EB800004EB30
:1039C0000010A54AA0F8721000969DF8101020462D
:1039D000FDF796FD01469DF8100000EB800004EB1A
:1039E0000010A0F872109DF81010287901EB8102E8
:1039F00004EB0213C0F38200C0F1070220466933D2
:103A0000FDF750FC0028C0D19DF8100000EB8000AD
:103A100004EB0010016E59B1826B914208D090F80E
:103A20003220CDE90028038E3A4620460399E4E689
:103A3000A1208DF81800012059460E54401C08287A
:103A4000FBD306AB39462046039A00F0E3F99DF814
:103A500010102046FDF70EFC00283FF4C8A89DF882
:103A6000101001EB810104EB011191F83220CDE936
:103A7000002002E08CE0BBE0EBE00B8ED4E79DF889
:103A8000100000EB800004EB0010B0F97200411C44
:103A90001BD0FCF7C3FF01469DF81000412300EB4B
:103AA000800004EB00106C4AA0F8721000969DF89C
:103AB00010102046FDF724FD01469DF8100000EB94
:103AC000800004EB0010A0F872109DF8101001EBBC
:103AD000810004EB001393F8670020B1012837D070
:103AE000022876D087E02879C00730D1012083F8FA
:103AF00067002879C0F380019DF8100000EB80007A
:103B000004EB001080F85C102879800710D5287A23
:103B1000697AEA7A00EB0120A97A090401EB0261D3
:103B200001449DF8100000EB800004EB00100166DA
:103B3000A3208DF81800012059460E54401C082877
:103B4000FBD306AB39462046039A00F063F952E0F6
:103B5000287900F07F08000693F8650000F1010065
:103B600038D5404514D1022083F867009DF8100035
:103B700000EB800004EB001080F865809DF81000D9
:103B8000696800EB800004EB00108166A968C166DB
:103B9000A2208DF818009DF8100006AB00EB800005
:103BA00004EB0010394690F865008DF819008DF887
:103BB0001AA007968DF81B602046039A00F02AF998
:103BC0009DF8100000EB800004EB001080F86560A9
:103BD00011E014E040450BD183F865806B1D07228E
:103BE0009DF810102046FDF75DFB00287FF4CDAE58
:103BF000B8F1100FCCD00DB00020BDE8F08F2879BF
:103C0000C20726D0C0F38200C0F107022046693304
:103C1000FDF748FB0028E9D19DF8100000EB80007B
:103C200004EB0010016E19B1826B91427FF4F7AE84
:103C3000A1208DF81800012059460E54401C082878
:103C4000FBD306AB39462046039A00F0E3F8FFF7B2
:103C500037B80023FFF7C3BBF911000870B5D0F8DF
:103C6000CC110446884794F87E00002809D0012131
:103C70002046FDF7A6FF0546D4F8D0112046884718
:103C8000284670BD70B5054600242146284600F040
:103C900005F8641C14F0FF04F7D070BD7CB5002457
:103CA0000D4606460094234622460194FEF752FB39
:103CB00005EB8500002206EB00108118521C81F8EC
:103CC0003C40202AF9D380F82940C4627CBDF0B47E
:103CD00015460E46D0F8E44129463046A446F0BCCD
:103CE0001A4660472DE9FF47044690F87E00894652
:103CF000C8B1A16809EBC90511F81500C00712D1B8
:103D000060694FF0000801AA0189CDF8048001EB39
:103D1000090086B2CDF8088049462046CDF80C80CF
:103D2000FEF758F818B1002004B0BDE8F087A0688D
:103D3000062101EB4501415ABDF80420914211D101
:103D4000092101EB45019DF80720415C914209D111
:103D50000A2101EB45010844082202A9FCF7A4FA54
:103D60000028E1D0606850F83600416CC06A0F88C6
:103D70000688AFB1A168022000EB450A31F90A00BC
:103D8000FCF74CFE4FF47A70B7FBF0F3154A494646
:103D90002046CDF80080FDF7B3FBA26822F80A00A8
:103DA000CEB1A168042000EB4507C85FFCF736FEE2
:103DB000642006FB00F30C4A49462046CDF80080FB
:103DC000FDF79EFBA168C853A06810F8151041F0DC
:103DD000010100F8151001AA4946204600F006F836
:103DE0000120A1E7351000085D10000830B401EB98
:103DF000C1010624836804EB4101194413680B6078
:103E000053684B6093688B60D0F8E00130BC11467A
:103E1000FEF76EB93EB590F87840052C01D07F2CA6
:103E200009D10129416908D0498821B11144826929
:103E3000528891420ED9FF203EBD09880029FAD050
:103E40001144826912889142F5D8426852F83110C3
:103E5000096A03E0426852F8311049696A460988E4
:103E6000ADF8001000218DF8021008218DF8031024
:103E7000002155185C5C491CC9B22C710829F8D383
:103E8000D0F8E0011146FEF733F93EBD7CB580263F
:103E9000DDE906548DF800608DF801301B0A8DF8BD
:103EA00002308DF80440230A8DF80530230C8DF87C
:103EB0000630230E8DF807308DF803506B46FFF760
:103EC000A9FF7CBD70B5054600F006F804462846FB
:103ED000FFF7C4FE204670BD0EB5D0F8C4110988A6
:103EE000ADF8001000218DF802108DF80310D0F805
:103EF000E0016946FEF7FCF80EBD00002DE9FF4722
:103F00004269002912887DD07F297BD8FAB14368A5
:103F100053F832305C69036826681B7803F5C06586
:103F2000AE4201D0FF2B02D101F5C063236043688C
:103F300053F83220136A02681D68127802F5B064E3
:103F4000A54201D0FF2A02D101F5B0621A6084694E
:103F5000DFF8DCA04269A7880AF12004928894E87F
:103F60006010DAF82C40CDE90056CDE902C40023F8
:103F70006C46DAB1A146BA4218D8042B16D244686E
:103F8000056854F832402D78666959F82340D6F810
:103F900000C004EB0508C44501D0FF2D01D10C443D
:103FA00034605B1C521CDBB292B2E4E78469426964
:103FB000002327890AF13004128994E86010DAF8A6
:103FC0003C40CDE90056CDE902C46C46EAB1A146B9
:103FD000BA421AD8042B18D24468056854F8324003
:103FE0002D78666959F82340D6F800C004EB05081F
:103FF000C44501D0FF2D01D10C4434605B1CDBB201
:10400000521C00E011E092B2E2E70268D0F81432EC
:1040100012781D6802F18004A54201D0FF2A02D166
:1040200001F180021A6000680170BDE8FF8700009E
:10403000A4420008202A01D9FF20704701EB81012A
:1040400000EB011042630020704700007CB504467D
:1040500090F87800884244D0244D31B1042930D002
:1040600005291FD07F293FD10EE0D5E90001CDE918
:104070000001002084F878006946204600F098F896
:10408000D4F8801020468847D5E90201CDE9000127
:104090007F2084F878006946204600F089F8D4F83B
:1040A00084101CE000B3D5E90401CDE9000105202E
:1040B00084F878006946204600F07AF8D4F8881031
:1040C0000DE088B1D5E90601CDE90001042084F8AE
:1040D00078006946204600F06BF8D4F88C10204632
:1040E000884794F878007CBDFF207CBDA44200087E
:1040F00001460148FDF741BB000800400EB50168CC
:104100000122097841F4E061ADF8001000218DF83A
:1041100002108DF804108DF80320D0F8E0016946F4
:10412000FDF7E6FF0EBD000038B50446B0F9C0014A
:10413000401C02D0204600F025F8104B002241F22E
:1041400005012046FDF746F80C4B002241F206011E
:104150002046FDF73FF8D4F8C401006840000CD5B4
:10416000D4F8C8010368002B07D0054A0021204677
:104170000093FDF7C5F9A4F8C00138BDE10F0008B0
:104180004116000810B5002304461A4641F2050105
:10419000FDF720F800231A4641F206012046FDF7FC
:1041A00019F8B4F9C001FCF739FCA4F8C00110BD3E
:1041B0002DE9F0410D460446497890F97A00012630
:1041C000002719B148B984F87A6006E0012804D1C3
:1041D00084F87A702046FFF755FDE878002894F8B7
:1041E0007C0006D060B984F87C602046FFF79CFF15
:1041F00006E0012804D184F87C702046FFF7C2FF56
:104200002879002894F87D0006D060B984F87D6094
:104210002046FEF7E3F806E0012804D184F87D701B
:104220002046FEF7E4F8A878002894F87B0006D032
:1042300060B984F87B602046FDF77EFF06E0012828
:1042400004D184F87B702046FDF786FF687900284A
:1042500094F87E0006D060B984F87E602046FCF7B2
:1042600013FF06E0012804D184F87E702046FCF795
:1042700037FF2878002894F8790005D0002801D16C
:1042800084F87960BDE8F0810128FBD184F8797069
:104290002046BDE8F041FFF731BF4FF04070E1EE3E
:1042A000100A704701000000000000000001010139
:1042B00001000100000101010101000000000000F7
:1042C00001000100000200000003000000040000E3
:1042D0000005000080010000800200008003000053
:1042E00080040000000000004400002001000010D5
:1042F000540000200100011074000020010005108E
:104300008400002001000610A40000200500101009
:10431000F4000020050011103401002001001410E9
:10432000480100200200161074010020050018103A
:10433000C0010020040080120002002006000014CA
:104340005802002006000114AC02002003000016F1
:10435000DC020020030001161003002006000018F4
:104360006803002006000118BC0300200400001AA6
:10437000F80300200400011A2C0400200300406010
:1043800054040020030041607C04002003006260AC
:10439000A40400200400C160000009000A000C0011
:1043A0000E001000000009000B000D000F001100AE
:1043B00016003031323334353637383941424344D0
:1043C000454600004D6173746572207265636569CE
:1043D00076656420454D4359206D6573736167654B
:1043E0002E204E6F64653A2025322E3278202045EB
:1043F00072726F72436F64653A2025342E347820D0
:10440000204572726F7252656769737465723A20E3
:1044100025322E32780A00005465726D696E616C27
:10442000000000004444000800000020B007000025
:10443000C4010008AC460008B0070020A00B000033
:1044400020020008138101100C0801020304050674
:104450000708F8042420FFFF69040114F2021B2D51
:1044600001142207320422403A2024220519171190
:104470005A5010413A801F7159306A6820591019FA
:10448000242910290BC97459502A9320592C9A9425
:104490000C9A980C9A9C0C1AA00CF94D99509AE021
:1044A0002C9AE40C9AE80C9AEC0C1AF00C19A479EA
:1044B000B01330011320017E60EA60EA02541A4012
:1044C0001469202A440C0910CF792C1A62205A0250
:1044D0002C9A640C9A680C9A6C0C1A700C42032289
:1044E000061A80449A024C9AB0789AB40C2AB80CF6
:1044F00059241ABC0C190B39392910A98C9AF0349B
:104500009AF4342AF80C1970296C9AFA189AFC1843
:104510000A19FE588B4802582A4C0C59182A500C7C
:1045200059409A52189A54181B9808FC316809107F
:1045300001416020016260249AA0549AA40C1AA838
:104540000C39301A02308A02309AD0249AD40C1ACC
:10455000D80C29B86A80B599B8118A03281A040CB6
:104560005A04182A080C59A02A0A2459182A0C0C93
:1045700059181A0E0C29580A1190589A58589A5CD2
:10458000589A60589A62589A64581A660C2A03E03E
:104590001B0140E07AC1E09AB0549AB40C9AB80C6E
:1045A0006ABC3C1A023C8A033C9AEC249AF00C9AAE
:1045B000F40C1AF80C2980298529348B28049422BC
:1045C0001E790C1A280CA9289A50289A2028DA2A31
:1045D000282A7828596C2A2428590C1A2C0C29B41A
:1045E00069282AA028590C2A3028192529289A3404
:1045F0000C3A386B1AFF01E1E9121A3C2813E84221
:104600002B08D4543113991A140898431B08A40496
:104610001AB0041AE41C13CD0F024A084980720F25
:1046200013A31B1B08B3041AA7048BD11D681340E6
:10463000011B2044041A42041A600429361AA124DA
:104640000A270F0101561AFF011AA58822901B2084
:104650009204018023FFFF1A68881A80041AB19817
:104660001AAD041AA9041AAB0481138D0E8C08D359
:104670001D1002100119111A60401A64041A500426
:104680000B203001D85AAF60600B53454747455265
:10469000205254545A02041318441C08E0084802DB
:0C46A00026043930120C03272010000003
:040000050800018965
:00000001FF
